{
  "_format": "hh-sol-artifact-1",
  "contractName": "StknICO",
  "sourceName": "contracts/ICO.sol",
  "abi": [
    {
      "inputs": [
        {
          "internalType": "address payable",
          "name": "_icoWallet",
          "type": "address"
        },
        {
          "internalType": "address",
          "name": "_token",
          "type": "address"
        }
      ],
      "stateMutability": "nonpayable",
      "type": "constructor"
    },
    {
      "anonymous": false,
      "inputs": [
        {
          "indexed": true,
          "internalType": "address",
          "name": "from",
          "type": "address"
        },
        {
          "indexed": true,
          "internalType": "address",
          "name": "to",
          "type": "address"
        },
        {
          "indexed": false,
          "internalType": "uint256",
          "name": "value",
          "type": "uint256"
        },
        {
          "indexed": false,
          "internalType": "uint256",
          "name": "tokens",
          "type": "uint256"
        }
      ],
      "name": "Invest",
      "type": "event"
    },
    {
      "anonymous": false,
      "inputs": [
        {
          "indexed": false,
          "internalType": "address",
          "name": "to",
          "type": "address"
        },
        {
          "indexed": false,
          "internalType": "uint256",
          "name": "amount",
          "type": "uint256"
        },
        {
          "indexed": false,
          "internalType": "uint256",
          "name": "time",
          "type": "uint256"
        }
      ],
      "name": "TokenBurn",
      "type": "event"
    },
    {
      "stateMutability": "payable",
      "type": "fallback"
    },
    {
      "inputs": [],
      "name": "ICOState",
      "outputs": [
        {
          "internalType": "enum StknICO.State",
          "name": "",
          "type": "uint8"
        }
      ],
      "stateMutability": "view",
      "type": "function"
    },
    {
      "inputs": [],
      "name": "ICOWallet",
      "outputs": [
        {
          "internalType": "address payable",
          "name": "",
          "type": "address"
        }
      ],
      "stateMutability": "view",
      "type": "function"
    },
    {
      "inputs": [],
      "name": "admin",
      "outputs": [
        {
          "internalType": "address",
          "name": "",
          "type": "address"
        }
      ],
      "stateMutability": "view",
      "type": "function"
    },
    {
      "inputs": [],
      "name": "burn",
      "outputs": [
        {
          "internalType": "bool",
          "name": "",
          "type": "bool"
        }
      ],
      "stateMutability": "nonpayable",
      "type": "function"
    },
    {
      "inputs": [
        {
          "internalType": "address",
          "name": "_newAdmin",
          "type": "address"
        }
      ],
      "name": "changeAdmin",
      "outputs": [],
      "stateMutability": "nonpayable",
      "type": "function"
    },
    {
      "inputs": [
        {
          "internalType": "address payable",
          "name": "_newICOWallet",
          "type": "address"
        }
      ],
      "name": "changeICOWallet",
      "outputs": [],
      "stateMutability": "nonpayable",
      "type": "function"
    },
    {
      "inputs": [],
      "name": "endIco",
      "outputs": [],
      "stateMutability": "nonpayable",
      "type": "function"
    },
    {
      "inputs": [],
      "name": "getICOState",
      "outputs": [
        {
          "internalType": "string",
          "name": "",
          "type": "string"
        }
      ],
      "stateMutability": "view",
      "type": "function"
    },
    {
      "inputs": [],
      "name": "getICOTokenBalance",
      "outputs": [
        {
          "internalType": "uint256",
          "name": "",
          "type": "uint256"
        }
      ],
      "stateMutability": "view",
      "type": "function"
    },
    {
      "inputs": [],
      "name": "haltICO",
      "outputs": [],
      "stateMutability": "nonpayable",
      "type": "function"
    },
    {
      "inputs": [],
      "name": "hardCap",
      "outputs": [
        {
          "internalType": "uint256",
          "name": "",
          "type": "uint256"
        }
      ],
      "stateMutability": "view",
      "type": "function"
    },
    {
      "inputs": [],
      "name": "icoEndTime",
      "outputs": [
        {
          "internalType": "uint256",
          "name": "",
          "type": "uint256"
        }
      ],
      "stateMutability": "view",
      "type": "function"
    },
    {
      "inputs": [],
      "name": "icoStartTime",
      "outputs": [
        {
          "internalType": "uint256",
          "name": "",
          "type": "uint256"
        }
      ],
      "stateMutability": "view",
      "type": "function"
    },
    {
      "inputs": [],
      "name": "invest",
      "outputs": [
        {
          "internalType": "bool",
          "name": "",
          "type": "bool"
        }
      ],
      "stateMutability": "payable",
      "type": "function"
    },
    {
      "inputs": [
        {
          "internalType": "address",
          "name": "",
          "type": "address"
        }
      ],
      "name": "investedAmountOf",
      "outputs": [
        {
          "internalType": "uint256",
          "name": "",
          "type": "uint256"
        }
      ],
      "stateMutability": "view",
      "type": "function"
    },
    {
      "inputs": [
        {
          "internalType": "address",
          "name": "_investor",
          "type": "address"
        }
      ],
      "name": "investorBalanceOf",
      "outputs": [
        {
          "internalType": "uint256",
          "name": "",
          "type": "uint256"
        }
      ],
      "stateMutability": "view",
      "type": "function"
    },
    {
      "inputs": [],
      "name": "maxInvestment",
      "outputs": [
        {
          "internalType": "uint256",
          "name": "",
          "type": "uint256"
        }
      ],
      "stateMutability": "view",
      "type": "function"
    },
    {
      "inputs": [],
      "name": "minInvestment",
      "outputs": [
        {
          "internalType": "uint256",
          "name": "",
          "type": "uint256"
        }
      ],
      "stateMutability": "view",
      "type": "function"
    },
    {
      "inputs": [],
      "name": "raisedAmount",
      "outputs": [
        {
          "internalType": "uint256",
          "name": "",
          "type": "uint256"
        }
      ],
      "stateMutability": "view",
      "type": "function"
    },
    {
      "inputs": [],
      "name": "resumeICO",
      "outputs": [],
      "stateMutability": "nonpayable",
      "type": "function"
    },
    {
      "inputs": [],
      "name": "startICO",
      "outputs": [],
      "stateMutability": "nonpayable",
      "type": "function"
    },
    {
      "inputs": [],
      "name": "token",
      "outputs": [
        {
          "internalType": "contract IERC20",
          "name": "",
          "type": "address"
        }
      ],
      "stateMutability": "view",
      "type": "function"
    },
    {
      "inputs": [],
      "name": "tokenPrice",
      "outputs": [
        {
          "internalType": "uint256",
          "name": "",
          "type": "uint256"
        }
      ],
      "stateMutability": "view",
      "type": "function"
    },
    {
      "stateMutability": "payable",
      "type": "receive"
    }
  ],
  "bytecode": "0x6080604052655af3107a4000600355681b1ae4d6e2ef50000060045566038d7ea4c680006006556729a2241af62c00006007553480156200003f57600080fd5b50604051620024bc380380620024bc8339818101604052810190620000659190620001de565b336000806101000a81548173ffffffffffffffffffffffffffffffffffffffff021916908373ffffffffffffffffffffffffffffffffffffffff16021790555081600160006101000a81548173ffffffffffffffffffffffffffffffffffffffff021916908373ffffffffffffffffffffffffffffffffffffffff16021790555080600260006101000a81548173ffffffffffffffffffffffffffffffffffffffff021916908373ffffffffffffffffffffffffffffffffffffffff160217905550505062000225565b600080fd5b600073ffffffffffffffffffffffffffffffffffffffff82169050919050565b6000620001618262000134565b9050919050565b620001738162000154565b81146200017f57600080fd5b50565b600081519050620001938162000168565b92915050565b6000620001a68262000134565b9050919050565b620001b88162000199565b8114620001c457600080fd5b50565b600081519050620001d881620001ad565b92915050565b60008060408385031215620001f857620001f76200012f565b5b6000620002088582860162000182565b92505060206200021b85828601620001c7565b9150509250929050565b61228780620002356000396000f3fe6080604052600436106101425760003560e01c80638ac2c680116100b6578063c59ee1dc1161006f578063c59ee1dc1461041a578063e657807b14610445578063e8b5e51f1461045c578063f851a4401461047a578063fb86a404146104a5578063fc0c546a146104d057610151565b80638ac2c6801461032e5780638f283970146103595780639cbd7da514610382578063a7c3d71b14610399578063ae764df3146103c4578063aeecdc2c146103ef57610151565b806344df8e701161010857806344df8e701461022e5780636127b2ca1461025957806361fba37d146102845780637e1055b6146102c15780637fa8c158146102ec5780637ff9b5961461030357610151565b80622e13161461015b578062f53e6914610186578063129caa18146101af5780631aae3460146101c65780632e659d931461020357610151565b366101515761014f6104fb565b005b6101596104fb565b005b34801561016757600080fd5b506101706109a3565b60405161017d91906115fb565b60405180910390f35b34801561019257600080fd5b506101ad60048036038101906101a89190611679565b6109a9565b005b3480156101bb57600080fd5b506101c4610a7b565b005b3480156101d257600080fd5b506101ed60048036038101906101e891906116e4565b610bac565b6040516101fa91906115fb565b60405180910390f35b34801561020f57600080fd5b50610218610bc4565b60405161022591906117a1565b60405180910390f35b34801561023a57600080fd5b50610243610d6a565b60405161025091906117de565b60405180910390f35b34801561026557600080fd5b5061026e610fac565b60405161027b91906115fb565b60405180910390f35b34801561029057600080fd5b506102ab60048036038101906102a691906116e4565b61104f565b6040516102b891906115fb565b60405180910390f35b3480156102cd57600080fd5b506102d66110f4565b6040516102e391906115fb565b60405180910390f35b3480156102f857600080fd5b506103016110fa565b005b34801561030f57600080fd5b5061031861124a565b60405161032591906115fb565b60405180910390f35b34801561033a57600080fd5b50610343611250565b60405161035091906115fb565b60405180910390f35b34801561036557600080fd5b50610380600480360381019061037b91906116e4565b611256565b005b34801561038e57600080fd5b50610397611327565b005b3480156103a557600080fd5b506103ae611457565b6040516103bb91906115fb565b60405180910390f35b3480156103d057600080fd5b506103d961145d565b6040516103e69190611808565b60405180910390f35b3480156103fb57600080fd5b50610404611483565b604051610411919061189a565b60405180910390f35b34801561042657600080fd5b5061042f611496565b60405161043c91906115fb565b60405180910390f35b34801561045157600080fd5b5061045a61149c565b005b6104646104fb565b60405161047191906117de565b60405180910390f35b34801561048657600080fd5b5061048f611592565b60405161049c91906118c4565b60405180910390f35b3480156104b157600080fd5b506104ba6115b6565b6040516104c791906115fb565b60405180910390f35b3480156104dc57600080fd5b506104e56115bc565b6040516104f2919061193e565b60405180910390f35b60006001600381111561051157610510611823565b5b600b60009054906101000a900460ff16600381111561053357610532611823565b5b14610573576040517f08c379a000000000000000000000000000000000000000000000000000000000815260040161056a906119a5565b60405180910390fd5b600654341015801561058757506007543411155b6105c6576040517f08c379a00000000000000000000000000000000000000000000000000000000081526004016105bd90611a11565b60405180910390fd5b60075434600a60003373ffffffffffffffffffffffffffffffffffffffff1673ffffffffffffffffffffffffffffffffffffffff168152602001908152602001600020546106149190611a60565b1115610655576040517f08c379a000000000000000000000000000000000000000000000000000000000815260040161064c90611b06565b60405180910390fd5b600454346005546106669190611a60565b11156106a7576040517f08c379a000000000000000000000000000000000000000000000000000000000815260040161069e90611b72565b60405180910390fd5b6009544211156106ec576040517f08c379a00000000000000000000000000000000000000000000000000000000081526004016106e390611c04565b60405180910390fd5b34600560008282546106fe9190611a60565b9250508190555034600a60003373ffffffffffffffffffffffffffffffffffffffff1673ffffffffffffffffffffffffffffffffffffffff16815260200190815260200160002060008282546107549190611a60565b925050819055506000600160009054906101000a900473ffffffffffffffffffffffffffffffffffffffff1673ffffffffffffffffffffffffffffffffffffffff16346040516107a390611c55565b60006040518083038185875af1925050503d80600081146107e0576040519150601f19603f3d011682016040523d82523d6000602084013e6107e5565b606091505b5050905080610829576040517f08c379a000000000000000000000000000000000000000000000000000000000815260040161082090611cb6565b60405180910390fd5b6000670de0b6b3a7640000600354346108429190611d05565b61084c9190611d36565b90506000600260009054906101000a900473ffffffffffffffffffffffffffffffffffffffff1673ffffffffffffffffffffffffffffffffffffffff1663a9059cbb33846040518363ffffffff1660e01b81526004016108ad929190611d90565b6020604051808303816000875af11580156108cc573d6000803e3d6000fd5b505050506040513d601f19601f820116820180604052508101906108f09190611de5565b905080610932576040517f08c379a000000000000000000000000000000000000000000000000000000000815260040161092990611cb6565b60405180910390fd5b3373ffffffffffffffffffffffffffffffffffffffff163073ffffffffffffffffffffffffffffffffffffffff167f2e206bbdd5787cd6d3e97144dec044f9f15dd77a257afd27fa70cad6f03feae33485604051610991929190611e12565b60405180910390a36001935050505090565b60075481565b60008054906101000a900473ffffffffffffffffffffffffffffffffffffffff1673ffffffffffffffffffffffffffffffffffffffff163373ffffffffffffffffffffffffffffffffffffffff1614610a37576040517f08c379a0000000000000000000000000000000000000000000000000000000008152600401610a2e90611e87565b60405180910390fd5b80600160006101000a81548173ffffffffffffffffffffffffffffffffffffffff021916908373ffffffffffffffffffffffffffffffffffffffff16021790555050565b60008054906101000a900473ffffffffffffffffffffffffffffffffffffffff1673ffffffffffffffffffffffffffffffffffffffff163373ffffffffffffffffffffffffffffffffffffffff1614610b09576040517f08c379a0000000000000000000000000000000000000000000000000000000008152600401610b0090611e87565b60405180910390fd5b60016003811115610b1d57610b1c611823565b5b600b60009054906101000a900460ff166003811115610b3f57610b3e611823565b5b14610b7f576040517f08c379a0000000000000000000000000000000000000000000000000000000008152600401610b7690611ef3565b60405180910390fd5b6003600b60006101000a81548160ff02191690836003811115610ba557610ba4611823565b5b0217905550565b600a6020528060005260406000206000915090505481565b606060006003811115610bda57610bd9611823565b5b600b60009054906101000a900460ff166003811115610bfc57610bfb611823565b5b03610c3e576040518060400160405280600b81526020017f4e6f7420537461727465640000000000000000000000000000000000000000008152509050610d67565b60016003811115610c5257610c51611823565b5b600b60009054906101000a900460ff166003811115610c7457610c73611823565b5b03610cb6576040518060400160405280600781526020017f52756e6e696e67000000000000000000000000000000000000000000000000008152509050610d67565b60026003811115610cca57610cc9611823565b5b600b60009054906101000a900460ff166003811115610cec57610ceb611823565b5b03610d2e576040518060400160405280600381526020017f456e6400000000000000000000000000000000000000000000000000000000008152509050610d67565b6040518060400160405280600681526020017f48616c746564000000000000000000000000000000000000000000000000000081525090505b90565b600060026003811115610d8057610d7f611823565b5b600b60009054906101000a900460ff166003811115610da257610da1611823565b5b14610de2576040517f08c379a0000000000000000000000000000000000000000000000000000000008152600401610dd990611f5f565b60405180910390fd5b6000600260009054906101000a900473ffffffffffffffffffffffffffffffffffffffff1673ffffffffffffffffffffffffffffffffffffffff166370a08231306040518263ffffffff1660e01b8152600401610e3f91906118c4565b602060405180830381865afa158015610e5c573d6000803e3d6000fd5b505050506040513d601f19601f82011682018060405250810190610e809190611fab565b90506000600260009054906101000a900473ffffffffffffffffffffffffffffffffffffffff1673ffffffffffffffffffffffffffffffffffffffff1663a9059cbb6000846040518363ffffffff1660e01b8152600401610ee2929190611d90565b6020604051808303816000875af1158015610f01573d6000803e3d6000fd5b505050506040513d601f19601f82011682018060405250810190610f259190611de5565b905080610f67576040517f08c379a0000000000000000000000000000000000000000000000000000000008152600401610f5e90612024565b60405180910390fd5b7ffe9e0b0c1e3e9216717d5f66d10bc310b12c366417e150b4b1af9fb9620bca9160008342604051610f9b93929190612044565b60405180910390a160019250505090565b6000600260009054906101000a900473ffffffffffffffffffffffffffffffffffffffff1673ffffffffffffffffffffffffffffffffffffffff166370a08231306040518263ffffffff1660e01b815260040161100991906118c4565b602060405180830381865afa158015611026573d6000803e3d6000fd5b505050506040513d601f19601f8201168201806040525081019061104a9190611fab565b905090565b6000600260009054906101000a900473ffffffffffffffffffffffffffffffffffffffff1673ffffffffffffffffffffffffffffffffffffffff166370a08231836040518263ffffffff1660e01b81526004016110ac91906118c4565b602060405180830381865afa1580156110c9573d6000803e3d6000fd5b505050506040513d601f19601f820116820180604052508101906110ed9190611fab565b9050919050565b60095481565b60008054906101000a900473ffffffffffffffffffffffffffffffffffffffff1673ffffffffffffffffffffffffffffffffffffffff163373ffffffffffffffffffffffffffffffffffffffff1614611188576040517f08c379a000000000000000000000000000000000000000000000000000000000815260040161117f90611e87565b60405180910390fd5b6000600381111561119c5761119b611823565b5b600b60009054906101000a900460ff1660038111156111be576111bd611823565b5b146111fe576040517f08c379a00000000000000000000000000000000000000000000000000000000081526004016111f5906120c7565b60405180910390fd5b426008819055506301e133806008546112179190611a60565b6009819055506001600b60006101000a81548160ff0219169083600381111561124357611242611823565b5b0217905550565b60035481565b60065481565b60008054906101000a900473ffffffffffffffffffffffffffffffffffffffff1673ffffffffffffffffffffffffffffffffffffffff163373ffffffffffffffffffffffffffffffffffffffff16146112e4576040517f08c379a00000000000000000000000000000000000000000000000000000000081526004016112db90611e87565b60405180910390fd5b806000806101000a81548173ffffffffffffffffffffffffffffffffffffffff021916908373ffffffffffffffffffffffffffffffffffffffff16021790555050565b60008054906101000a900473ffffffffffffffffffffffffffffffffffffffff1673ffffffffffffffffffffffffffffffffffffffff163373ffffffffffffffffffffffffffffffffffffffff16146113b5576040517f08c379a00000000000000000000000000000000000000000000000000000000081526004016113ac90611e87565b60405180910390fd5b6003808111156113c8576113c7611823565b5b600b60009054906101000a900460ff1660038111156113ea576113e9611823565b5b1461142a576040517f08c379a000000000000000000000000000000000000000000000000000000000815260040161142190612133565b60405180910390fd5b6001600b60006101000a81548160ff021916908360038111156114505761144f611823565b5b0217905550565b60085481565b600160009054906101000a900473ffffffffffffffffffffffffffffffffffffffff1681565b600b60009054906101000a900460ff1681565b60055481565b600160038111156114b0576114af611823565b5b600b60009054906101000a900460ff1660038111156114d2576114d1611823565b5b14611512576040517f08c379a00000000000000000000000000000000000000000000000000000000081526004016115099061219f565b60405180910390fd5b600954421180611526575060045460055410155b611565576040517f08c379a000000000000000000000000000000000000000000000000000000000815260040161155c90612231565b60405180910390fd5b6002600b60006101000a81548160ff0219169083600381111561158b5761158a611823565b5b0217905550565b60008054906101000a900473ffffffffffffffffffffffffffffffffffffffff1681565b60045481565b600260009054906101000a900473ffffffffffffffffffffffffffffffffffffffff1681565b6000819050919050565b6115f5816115e2565b82525050565b600060208201905061161060008301846115ec565b92915050565b600080fd5b600073ffffffffffffffffffffffffffffffffffffffff82169050919050565b60006116468261161b565b9050919050565b6116568161163b565b811461166157600080fd5b50565b6000813590506116738161164d565b92915050565b60006020828403121561168f5761168e611616565b5b600061169d84828501611664565b91505092915050565b60006116b18261161b565b9050919050565b6116c1816116a6565b81146116cc57600080fd5b50565b6000813590506116de816116b8565b92915050565b6000602082840312156116fa576116f9611616565b5b6000611708848285016116cf565b91505092915050565b600081519050919050565b600082825260208201905092915050565b60005b8381101561174b578082015181840152602081019050611730565b60008484015250505050565b6000601f19601f8301169050919050565b600061177382611711565b61177d818561171c565b935061178d81856020860161172d565b61179681611757565b840191505092915050565b600060208201905081810360008301526117bb8184611768565b905092915050565b60008115159050919050565b6117d8816117c3565b82525050565b60006020820190506117f360008301846117cf565b92915050565b6118028161163b565b82525050565b600060208201905061181d60008301846117f9565b92915050565b7f4e487b7100000000000000000000000000000000000000000000000000000000600052602160045260246000fd5b6004811061186357611862611823565b5b50565b600081905061187482611852565b919050565b600061188482611866565b9050919050565b61189481611879565b82525050565b60006020820190506118af600083018461188b565b92915050565b6118be816116a6565b82525050565b60006020820190506118d960008301846118b5565b92915050565b6000819050919050565b60006119046118ff6118fa8461161b565b6118df565b61161b565b9050919050565b6000611916826118e9565b9050919050565b60006119288261190b565b9050919050565b6119388161191d565b82525050565b6000602082019050611953600083018461192f565b92915050565b7f49434f2069736e27742072756e6e696e67000000000000000000000000000000600082015250565b600061198f60118361171c565b915061199a82611959565b602082019050919050565b600060208201905081810360008301526119be81611982565b9050919050565b7f436865636b204d696e20616e64204d617820496e766573746d656e7400000000600082015250565b60006119fb601c8361171c565b9150611a06826119c5565b602082019050919050565b60006020820190508181036000830152611a2a816119ee565b9050919050565b7f4e487b7100000000000000000000000000000000000000000000000000000000600052601160045260246000fd5b6000611a6b826115e2565b9150611a76836115e2565b9250828201905080821115611a8e57611a8d611a31565b5b92915050565b7f496e766573746f722072656163686564206d6178696d756d20496e766573746d60008201527f656e7420416d6f756e7400000000000000000000000000000000000000000000602082015250565b6000611af0602a8361171c565b9150611afb82611a94565b604082019050919050565b60006020820190508181036000830152611b1f81611ae3565b9050919050565b7f53656e642077697468696e20686172646361702072616e676500000000000000600082015250565b6000611b5c60198361171c565b9150611b6782611b26565b602082019050919050565b60006020820190508181036000830152611b8b81611b4f565b9050919050565b7f49434f20616c72656164792052656163686564204d6178696d756d2074696d6560008201527f206c696d69740000000000000000000000000000000000000000000000000000602082015250565b6000611bee60268361171c565b9150611bf982611b92565b604082019050919050565b60006020820190508181036000830152611c1d81611be1565b9050919050565b600081905092915050565b50565b6000611c3f600083611c24565b9150611c4a82611c2f565b600082019050919050565b6000611c6082611c32565b9150819050919050565b7f4661696c656420746f20496e7665737400000000000000000000000000000000600082015250565b6000611ca060108361171c565b9150611cab82611c6a565b602082019050919050565b60006020820190508181036000830152611ccf81611c93565b9050919050565b7f4e487b7100000000000000000000000000000000000000000000000000000000600052601260045260246000fd5b6000611d10826115e2565b9150611d1b836115e2565b925082611d2b57611d2a611cd6565b5b828204905092915050565b6000611d41826115e2565b9150611d4c836115e2565b9250817fffffffffffffffffffffffffffffffffffffffffffffffffffffffffffffffff0483118215151615611d8557611d84611a31565b5b828202905092915050565b6000604082019050611da560008301856118b5565b611db260208301846115ec565b9392505050565b611dc2816117c3565b8114611dcd57600080fd5b50565b600081519050611ddf81611db9565b92915050565b600060208284031215611dfb57611dfa611616565b5b6000611e0984828501611dd0565b91505092915050565b6000604082019050611e2760008301856115ec565b611e3460208301846115ec565b9392505050565b7f41646d696e204f6e6c792066756e6374696f6e00000000000000000000000000600082015250565b6000611e7160138361171c565b9150611e7c82611e3b565b602082019050919050565b60006020820190508181036000830152611ea081611e64565b9050919050565b7f49434f2069736e27742072756e6e696e67207965740000000000000000000000600082015250565b6000611edd60158361171c565b9150611ee882611ea7565b602082019050919050565b60006020820190508181036000830152611f0c81611ed0565b9050919050565b7f49434f2069736e2774206f766572207965740000000000000000000000000000600082015250565b6000611f4960128361171c565b9150611f5482611f13565b602082019050919050565b60006020820190508181036000830152611f7881611f3c565b9050919050565b611f88816115e2565b8114611f9357600080fd5b50565b600081519050611fa581611f7f565b92915050565b600060208284031215611fc157611fc0611616565b5b6000611fcf84828501611f96565b91505092915050565b7f4661696c656420746f206275726e2072656d61696e696e6720746f6b656e7300600082015250565b600061200e601f8361171c565b915061201982611fd8565b602082019050919050565b6000602082019050818103600083015261203d81612001565b9050919050565b600060608201905061205960008301866118b5565b61206660208301856115ec565b61207360408301846115ec565b949350505050565b7f49434f2069736e277420696e206265666f726520737461746500000000000000600082015250565b60006120b160198361171c565b91506120bc8261207b565b602082019050919050565b600060208201905081810360008301526120e0816120a4565b9050919050565b7f49434f2053746174652069736e27742068616c74656420796574000000000000600082015250565b600061211d601a8361171c565b9150612128826120e7565b602082019050919050565b6000602082019050818103600083015261214c81612110565b9050919050565b7f49434f2053686f756c6420626520696e2052756e6e696e672053746174650000600082015250565b6000612189601e8361171c565b915061219482612153565b602082019050919050565b600060208201905081810360008301526121b88161217c565b9050919050565b7f49434f2048617264636170206f722074696d656c696d6974206e6f742072656160008201527f6368656400000000000000000000000000000000000000000000000000000000602082015250565b600061221b60248361171c565b9150612226826121bf565b604082019050919050565b6000602082019050818103600083015261224a8161220e565b905091905056fea2646970667358221220885843a646fc2c208c4d74e354261b013488bbb6bcf94fba171a9325776c4dcc64736f6c63430008100033",
  "linkReferences": {},
  "deployedLinkReferences": {}
}